:1000000002064975940075940075B40075B30075C7
:10001000B20075B200D286D2B2D2C7D2B322C285A4
:10002000C2B4220205E1CA7BCA6BCA5BCA4BCA2BA7
:10003000CA1BCA0BC0D1C0D0C083C0827E35230B7F
:10004000347A3523BE340FA040056D337A3523E56D
:100050002104F521BEB0642803752100E522BEB15C
:1000600021380512072B8003120594D082D083D04B
:10007000D0D0D1DA0BDA1BDA2BDA4BDA5BDA6BDAB7
:100080007B3200007EA00D7E702D7E60D67CB61483
:100090007C6B78F97CB7147C7B78F27CBA147CABEF
:1000A00078EB220200267DC37DA27EB4001F7E94E1
:1000B00000B50200EF4005E47AC9B0227AC9B00B5E
:1000C000C422540F2490D43440D430F30CBEB04139
:1000D0004007BEB05B500224204CCC68021BC00B12
:1000E00084D389944CCC680B74201200D980F5CA53
:1000F0003B6D889F337CAE7EA9B00BA47007C37D97
:1001000038DA3B8994B42569C2F37EA9B00BA4A563
:10011000F824D0BEB00A501B7E500A20F60DAC5C0D
:10012000A52D7CCB70034EF00180DDAC5DA52D7C50
:10013000DB80D524CFBEB01AA5E850055E00DFD223
:10014000F3900355A3E4936011BCB078F774149353
:100150004CAB30F6B34EF08080AEA3E4936010BC9D
:10016000B078F77413937C3B741D937C2B89147CBB
:10017000B0801374201200D920F205BEC00250F3E3
:100180001BB509BB00011200D90200E41BB50BB876
:10019000104D1178047E14800020F21E4CCC681A99
:1001A0007D31E47E39804C8868070B3404BCBD780F
:1001B000F2C2F6CA191202B7DA197E19B060CACAB9
:1001C000191200D9DA190B144CDD68EE1BD078EA4D
:1001D00080B77E101080037E10085EB05F800AD268
:1001E000F67E100A80057E100AC2F66D119F117E00
:1001F00000201BB47EB97030F6021A3720F1051BBF
:10020000B47EB96030F6041A261A2430F0051BB506
:100210000BB820A5EC3382F692F6500A7CEA9F22B6
:100220009F217F127CAE4C44780F7C457C567C67C6
:100230006C772E00F878EF80122F117CB3337C3B63
:100240009CB140047C3B0B70A5D8EE7CB230E0053D
:10025000DAB8C44C3BCA380B207E00207E3000BE8A
:1002600018000078C1BE1008780730F404C2F4808A
:10027000B5CA287CB2BCBD38027CBD1202B7DA28F0
:10028000BC2D500A1BD0E4CA281200C280F07CB2F8
:1002900013DAB84004C4CAB8C4CA28BEF080400902
:1002A0005CDD7805A5DA0260065EF07F1200C2DA36
:1002B00028A5DADA0200E4BEF001680F30F4022467
:1002C0000220F50620F70330F6010420F229BCBC19
:1002D0005025CAB87CBF13B0E67420501174307C2E
:1002E0008A5E80F068081202F75EA00F8003120099
:1002F000D9DAB8BCBC78DB30F40F74301200D97492
:100300005830F30274781200D930F605742D0200CB
:10031000D9742B20F5F8742020F7F3221BB47EB992
:10032000B010F1021BB420F60B30E704F404D2F253
:100330007CCB800520E7057CDB0201085EF07F8036
:10034000F81BB50BB81030F0076D221B18200B15E9
:100350001B18800200F32D2B204C4248232E005303
:10036000584F44494355502A4E0004208001020052
:1003700010408CD2D7DFDF78E6D21C4101010101A9
:1003800001010101030375E900A9D7BA75EA00125A
:10039000070512071812061C12000312074CA2864A
:1003A000E433B4014AA2B2E433B40143A2C7E43354
:1003B000B4013CA2B3E433B4013575250712075BE1
:1003C00012008212001E12008212075B12008212BB
:1003D000001E12008212075B12008212001E120021
:1003E0008275250175220F12008212008280AFA251
:1003F000B3E4337815A2B2E433780FA286E43378FD
:1004000009A2C7E4337803752501A2B3E433782346
:10041000A2B2E433B4011CA286E433B40115A2C72E
:10042000E433780F752501A286E4336806A2B2E4AE
:100430003378F1A2B3E433782CA2B2E433B40125CB
:10044000A286E433781FA2C7E4337819752503A286
:10045000B2E4336810A286E433BEB0016807A2C7D5
:10046000E433B401E7A2B3E433782BA2B2E43378E7
:1004700025A286E433B4011EA2C7E433781875259B
:1004800005A286E433680FA2B2E433BEB001680669
:10049000A2B3E43378E8A2B3E433B4012EA2B2E409
:1004A000337828A286E4337822A2C7E433781C7517
:1004B0002504A2B2E433BEB0016810A286E433BEC4
:1004C000B0016807A2C7E433B401E4A2B3E433B4D3
:1004D0000126A2B2E433B4011FA286E4337819A244
:1004E000C7E4337813752504A286E433BEB00168EF
:1004F00007A2C7E433B401EDA2B3E433782FA2B26C
:10050000E4337829A286E4337823A2C7E433B40124
:100510001C752506A286E433BEB0016810A2B2E4C1
:1005200033BEB0016807A2B3E433B401E4A2B3E47C
:10053000337827A2B2E4337821A286E433B4011AD7
:10054000A2C7E433B40113752506A2B2E433BEB0EA
:10055000016807A2B3E433B401EDA2B3E433680346
:1005600002039EA2B2E433B40102800302039EA2FE
:1005700086E433B40102800302039EA2C7E433B4CD
:100580000102800302039E752508A2B3E433B4017F
:10059000F602039EE52514BEB00850427EA003A4D7
:1005A0009005A4730205BC0205C00205C50205C979
:1005B0000205CE0205D20205D70205D9740F8002CA
:1005C00074050206DE7432800274500206B674327C
:1005D000800274500206A2800574550206CA020702
:1005E0002BCA7BCA6BCA5BCA4BCA2BC0D175D10858
:1005F000C0D0C083C082C2AC309805C298120671C8
:10060000309904C299C200D2ACD082D083D0D0D06D
:10061000D1DA2BDA4BDA5BDA6BDA7B3253B1FC538B
:10062000B2FC53873F759850438E40538EFE5389DA
:100630000F438920758BB2758DB2C2ABD28ED2AC0E
:10064000D2AF7E34006402068B7584017E44041FA1
:10065000E47A49B01B4478F97EF8002575210075CD
:100660002228752300752400751F007525000206D9
:10067000F2E599B4AF11E51F04F51FBEB005400ABD
:10068000751F0075C76022751F00227D237E340F01
:10069000A07D131B147D3178F87D121B147D217809
:1006A000EC227AB122C296D297C2A0D2A1D2A2D213
:1006B000A3D294C295227AB122D2A0D2A1D296C25C
:1006C00097D2A2C2A3C294D295227AB122C296D264
:1006D00097C2A0D2A1D2A2D2A3D294C295227AB1BB
:1006E00022C2A0D2A1D2A2C2A3C294D295C296D253
:1006F00097221203866D337E2480041200A67E3476
:10070000800402073C75960F7595007592F07591FF
:10071000007E34003202068B53DDBF43DD2075D3EB
:100720009075D2E843AF4043DD8022C2A0C2A1C28F
:10073000A2C2A3C294C295C296C297227D236D33F2
:1007400080020B347E29B00B2470F72275B210752D
:10075000B10075942075930002001ED285D2B42298
:00000001FF
